:02000000E02BF3
:10000800FF00030E83010317C5000A08C4008A0114
:1000180070080313A1000B1D22280B1101300317D0
:10002800C202031CC30300304306031D1D28003011
:100038004206031D2228031308138B128B1C2F283A
:100048000313061C2D28881201300317BC0000304A
:10005800BD008B104B280B1C4B280317061E3B2892
:100068000313881601300317B6000030B700061ACC
:1000780044280313881201300317B2000030B3007C
:10008800861E4A280130B8000030B9000B1003134F
:100098002108F000031744088A00450E8300FF0E6C
:0400A8007F0E0900BE
:1000AC000F3083120313FC004730FD00FD0B5C285E
:0A00BC00FC0B5C28000000000800A7
:0E00C600213083120313FD00FD0B6728080094
:0600D4000000000008001E
:0E00DA00F201F101F001F801F301003008001D
:1000E80083120313F801F9011030FC00710DF80DAB
:1000F800F90D7408F8027508031C750FF902031846
:100108008C287408F80775080318750FF907031089
:0A011800F00DF10DFC0B7A28080031
:1001220083120317D41B9828031387139A280313E7
:1001320087170317541BA02803130713A2280313BE
:1001420007170317D41AA82803138712AA28031320
:1001520087160317541AB02803130712B228031381
:10016200071603173E18B82803130715BA280313F6
:10017200071187156A2087110317D419C32803139F
:100182008713C5280313871703175419CB280313A2
:100192000713CD28031307170317D418D328031303
:1001A2008712D5280313871603175418DB28031365
:1001B2000712DD280313071603173E18E32803135B
:1001C2000715E5280313071187156A2087110317FE
:0C01D2003E1CED285620EE28632008009B
:1001DE007B15FB1FF9280130F300F201F101F0014C
:0801EE00FA0DF20CFF300800CD
:0801F600FA1FF21300300800AB
:1001FE000E3083120313FD00FD0B032900000800CF
:10020E00831203173E104F08D400912003173E149B
:02021E000800D6
:1002200083120317D2010530520203181E29520807
:100230005107840020308000D20A13295208510748
:1002400084008001D20352085107D3000A30F40021
:10025000F5014F08F0005008F10074207808F00014
:100260007908F1003030F007031753088400700854
:1002700080000A30F400F5014F08F0005008F1004A
:10028000742070080317CF007108D0000030710689
:10029000031D4C2900307006031D4F295129D2033C
:0402A0002329080006
:0E02A4008312031735088A0034088200080010
:1002B200A0017208031D6E297108F2007008F10096
:1002C200F001A0157208031D6E297108F200F101F8
:1002D200A0112016720803197C292008F302031DBD
:1002E200031C80290310F21B8429F00DF10DF20D7D
:1002F200F30B742980290130FC006D20872902301C
:0E030200FC00EF2087290430FC00FB200800DF
:10031000FB14FB1F9229FF30F300F200F100F00004
:08032000FA0DF20CFF30080099
:10032800831203137008F8007108F000F101F2015C
:10033800F301FB01FC019630F300FA017008F100AB
:0C0348007808F000F801F20159210800CB
:100354008312031746088D0083168C130C14831222
:060364000C08F000080087
:10036A0083120317CB01CC014608CD004708CE0003
:10037A0080304706F00080307002031DC629003025
:10038A0046020318D4290130CB000030CC004608BD
:10039A00003CCD004708031C013ECE01CE024D08A9
:1003AA00CF004E08D0004808D10010210630C900FD
:1003BA000030CA004A08003C031DE5294908003CF0
:1003CA000318002A49084807F20001304902F000E0
:1003DA000030031C013E4A02F100700848078400FD
:1003EA000008F00072088400700880000130C90219
:1003FA00031CCA03DF2948088400203080004B0808
:10040A004C0403191E2AC901CA0149084807840075
:10041A000008203A031D152AC90A0319CA0A0A2A1A
:10042A000130C902031CCA034908480784002D3059
:04043A008000080036
:10043E0083120313FB017308031D77080319762A31
:10044E0072087606FA007708F3077E30031C332A0B
:10045E00F3020318792A362AF302031C7C2A720847
:10046E00F8007108FC007008FD00F817F61703106D
:10047E00F201F101F0011830A0007D1C502A740821
:10048E00F00775080318750FF10776080318760F35
:10049E00F207F20CF10CF00CF80CFC0CFD0C031036
:1004AE00A00B442AF21B602AF80DF00DF10DF20D8F
:1004BE00F3037B1B701C722AF81F722AF00A0319B1
:1004CE00F10A0319F20A031D722AF20CF10CF00C58
:1004DE00F30A0319792AFA1FF21300307E2A01302B
:1004EE006D207E2A023088217E2A0430EF20000003
:0204FE000800F4
:1005000083120313FA017308031D7A147708031D7D
:10051000FA147A080319CC2A033A0319972A7A188D
:10052000942AF61FCA2AC82AF21FC82ACA2A7208A1
:100530008039FA00F21376088039F6137A06031927
:10054000A52A7A080319C82ACA2A77087302031948
:10055000AC2A031CC02AC42A760872020319B32AE3
:10056000031CC02AC42A750871020319BA2A031C85
:10057000C02AC42A740870020319CC2A0318C42A9A
:10058000FA080319CA2AC82AFA080319C82ACA2A63
:1005900003140800031008000314031508000800E2
:1005A000831203139F01C0309F046409F000700898
:1005B00083169F051F179F17831203174608F00025
:1005C000F00D7010F00D7010F00D70107008031326
:1005D0009F041F14FF201F151F1DF02A0000EC2A86
:1005E0001F101E08F100F00183161E08F0040030F1
:0405F000F10408000A
:1005F400FF3083120317BF00FF30C000FF30C1007B
:10060400FF3003139F01C0309F046409F000700899
:0E06140083169F051F179F1783121F140800DF
:100622008316031387110711071287120713871303
:100632008312871107118713071387120712562097
:10064200562056208716071687156A2087115620CE
:1006520087156A208711562087156A208711562030
:10066200071287156A208711562087156A2087117D
:100672008712871787156A20871156208713071656
:1006820087156A208711071287156A20871156205D
:1006920087156A208711071687156A208711562049
:1006A200071287156A2087118717071787160716FB
:0E06B20087156A208711562003173E14080092
:1006C00052218A110A128000840AB40A0319B50A59
:0806D000F003031D602B08007C
:1006D8008312031373087706031D7F2B72087606AF
:1006E800031D7F2B71087506031D7F2B7008740688
:0C06F80003190315080003110800080096
:10070400831603178C1C882B0000822B8312460847
:100714008D0047088C0083168C130C150B08F00011
:100724008B1355308D00AA308D008C14F01B9C2B3C
:0A0734008B139D2B8B170C1108008E
:10073E00B12B803083120317C600C42BC030C60005
:10074E00C42B9430C600C42BD430C600C42B8030CA
:10075E00C600C42B831203174608013A0319A02BB7
:10076E004608023A0319A52B4608033A0319A82B8B
:10077E004608043A0319AB2BAE2B4703F00046088C
:10078E00F0077008C6007008D400912003173E10C1
:10079E00C90149084807840000080319DE2B4908DF
:1007AE00480784000008CF000721C90AD02B3E1449
:0207BE00080031
:1007C0000A27FF30831603138600FF308500880157
:1007D0008B178B15011783120317B601B701BC01E4
:1007E000BD01BA01BB01B801B901B201B301AA014F
:1007F000AB01AC01AD0183160313EC01ED018312D3
:10080000EE01EF018316EE01EF011123FA22013010
:100810000317D40091200C300317D400912001302D
:100820000317C6000130C7003130C8009F230630CF
:10083000FB001330FC00AD30FD00FD0B1D2CFC0B4C
:100840001D2CFB0B1D2C000000000C30D40091204F
:100850000C300317D40091200317C601D022942135
:1008600070080317AA007108AB007208AC00730887
:10087000AD003530F4005E30F5007A30F6007D30A2
:10088000F7001F2270080317AE007108AF0072084E
:10089000B0007308B10000303706031D512C013041
:1008A0003606031D6E2C0130D40091200130031751
:1008B000C6000130C7002230C8009F23B601B7012F
:1008C0000630FB001330FC00AD30FD00FD0B662C44
:1008D000FC0B662CFB0B662C00000000003033067E
:1008E000031D742C01303206031D912C0130D400FD
:1008F000912001300317C6000130C700C130C80085
:100900009F23B201B3010630FB001330FC00AD3071
:10091000FD00FD0B892CFC0B892CFB0B892C0000A6
:10092000000000303D06031D972C01303C06031DDE
:10093000BD2C0130D400912001300317C6000130D6
:10094000C7006530C8009F230630FB001330FC0051
:10095000AD30FD00FD0BAA2CFC0BAA2CFB0BAA2C26
:10096000000000000130D400912001300317C600C0
:100970000130C700B430C8009F230030F4000030BD
:10098000F5007030F6008330F7002E08F0002F08D5
:10099000F1003008F2003108F30080220130031C1E
:1009A0000030F00070080319F32C03172E08F40030
:1009B0002F08F5003008F6003108F7000030F0008D
:1009C0000030F1004830F2008430F3008022013022
:1009D000031C0030F00070080319F32C013083165B
:1009E000EC000030ED000030F4000030F500703015
:1009F000F6008330F700831203172E08F0002F084B
:100A0000F1003008F2003108F3006C230130031DBF
:100A10000030F00070080319122D01308316EE002B
:100A20000030EF00831600306D06031D192D0130D4
:100A30006C06031D562D0030831203173D06031D5F
:100A4000232D00303C06031D562D0313881601305C
:100A50000317D400912001300317C6000130C700EE
:100A6000CE30C8009F23013083160313EE00003000
:100A7000EF00EC01ED010630FB001330FC00AD305F
:100A8000FD00FD0B412DFC0B412DFB0B412D00000A
:100A90000000013083120317D400912001300317A6
:100AA000C6000130C7001D30C8009F238312031702
:100AB0000030F4000030F5004830F6008430F700D4
:100AC0002E08F0002F08F1003008F2003108F30082
:100AD00080220130031C0030F00070080319AE2D95
:100AE0008316EC01ED018312881201300317D40044
:100AF000912001300317C6000130C7001030C80034
:100B00009F230B30FB002630FC005D30FD00FD0B09
:100B1000872DFC0B872DFB0B872D0000000001307B
:100B2000D400912001300317C6000130C700DD302A
:100B3000C8009F23013083160313EE000030EF003E
:100B40000B30FB002630FC005D30FD00FD0BA62DB8
:100B5000FC0BA62DFB0BA62D000000008312031733
:100B60002E08F4002F08F5003008F6003108F700D1
:100B70000030F0000030F1006830F2008330F30004
:100B800080220130031C0030F00070080319102E81
:100B90008316EC01ED01831288128B16810105305A
:100BA00083168100B73083120317C200C3010130DE
:100BB000D4009120003083166F06031DE12D013013
:100BC0006E06031DED2D83120317BA0A0319BB0A23
:100BD000031308178316EE01EF0102308312031787
:100BE000C6000130C7005E30C8009F231030FB00F4
:100BF0003930FC000D30FD00FD0BFC2DFC0BFC2DF5
:100C0000FB0BFC2D000000000130D40091200813E4
:100C100001300317C6000130C7005130C8009F23C0
:100C2000031700303906031D172E01303806031D47
:100C3000522E0130D40091200317C6013A08C70094
:100C400082238312C601AA2170080313EE00EF016C
:100C500001300317C6000130C7004030C8009F2391
:100C600003136E080317C60003136F080317C700AA
:100C7000A030C800B5210230C6000130C700A03046
:100C8000C8009F23B801B9010630FB001330FC00F7
:100C9000AD30FD00FD0B4A2EFC0B4A2EFB0B4A2EFD
:080CA00000000000282C532E77
:100E140022308400423083120313F0005930031748
:100E2400B4000630B5006023A03084001430F00014
:100E3400E0300317B4000630B5006023643084004A
:100E44000130F00003300317B4000030B500602314
:100E5400B43084000D30F000F4300317B4000630D1
:100E6400B5006023653084000930F00001300317B9
:100E7400B4000730B5006023C13084002B30F0008B
:100E84009B300317B4000630B5006023103083177D
:100E940084001A30F000C6300317B4000630B500E1
:060EA40060238313080027
:020006000F34B5
:100CB2004134723472346F3473346134673465345E
:0E0CC2002034473461347A346F346E34003499
:100CD00053346D34613472347434203447346134A5
:0E0CE0007234643465346E34213421340034AF
:100CEE004E346F346D34623472346534203464346F
:100CFE0065342034703461346E346E3465343A3475
:020D0E000034AF
:100D100053346D3461347234743420344734613464
:0A0D20007234643465346E3400341C
:0C0D2A00503461346E346E346534003493
:100D3600463469346E3420344134723472346F343C
:0A0D460073346134673465340034FF
:100D50004134723472346F347334613467346534BF
:0E0D60002034473461347A346F346E340034FA
:100D6E0053346D3461347234743420344734613406
:0E0D7E007234643465346E3421342134003410
:100D8C00463469346E3420344134723472346F34E6
:0A0D9C0073346134673465340034A9
:100DA60053346D34613472347434203447346134CE
:0A0DB6007234643465346E34003486
:100DC0000034003400340034003400340034003483
:100DD0000034003400340034003400340034003473
:080DE00000340034003400343B
:100DE80053346D346134723474342034473461348C
:0A0DF8007234643465346E34003444
:100E020050346C34753469346534203421342134DF
:020E12000034AA
:02400E007A3BFB
:00000001FF
